{
  "address": "0x542f2ba2eA4AbBa2Cb46DDbB09b7Cf7FB19dCb0C",
  "abi": [
    {
      "inputs": [
        {
          "internalType": "address payable",
          "name": "_owner",
          "type": "address"
        }
      ],
      "stateMutability": "nonpayable",
      "type": "constructor"
    },
    {
      "inputs": [],
      "name": "not_Owner",
      "type": "error"
    },
    {
      "anonymous": false,
      "inputs": [
        {
          "indexed": false,
          "internalType": "string",
          "name": "func",
          "type": "string"
        },
        {
          "indexed": false,
          "internalType": "uint256",
          "name": "gas",
          "type": "uint256"
        }
      ],
      "name": "Log",
      "type": "event"
    },
    {
      "stateMutability": "nonpayable",
      "type": "fallback"
    },
    {
      "inputs": [],
      "name": "decrement",
      "outputs": [],
      "stateMutability": "nonpayable",
      "type": "function"
    },
    {
      "inputs": [],
      "name": "getter",
      "outputs": [
        {
          "internalType": "uint256",
          "name": "",
          "type": "uint256"
        }
      ],
      "stateMutability": "nonpayable",
      "type": "function"
    },
    {
      "inputs": [],
      "name": "increment",
      "outputs": [],
      "stateMutability": "nonpayable",
      "type": "function"
    },
    {
      "inputs": [],
      "name": "withdraw",
      "outputs": [],
      "stateMutability": "nonpayable",
      "type": "function"
    },
    {
      "stateMutability": "payable",
      "type": "receive"
    }
  ],
  "transactionHash": "0x9b860f5e54d79c2835cda9ac044fd2babea61cad02677d66cd08233673a7347e",
  "args": [
    "0x7911B0b7427e1155B6C279C5407b894815878AE0"
  ],
  "numDeployments": 2,
  "solcInputHash": "4ab6e64f1af86292d17c5264f6791509",
  "bytecode": "0x6080604052600060015534801561001557600080fd5b506040516106a73803806106a7833981810160405281019061003791906100e0565b806000806101000a81548173ffffffffffffffffffffffffffffffffffffffff021916908373ffffffffffffffffffffffffffffffffffffffff1602179055505061010d565b600080fd5b600073ffffffffffffffffffffffffffffffffffffffff82169050919050565b60006100ad82610082565b9050919050565b6100bd816100a2565b81146100c857600080fd5b50565b6000815190506100da816100b4565b92915050565b6000602082840312156100f6576100f561007d565b5b6000610104848285016100cb565b91505092915050565b61058b8061011c6000396000f3fe6080604052600436106100435760003560e01c80632baeceb7146100c75780633ccfd60b146100de578063993a04b7146100f5578063d09de08a1461012057610081565b36610081577fdd970dd9b5bfe707922155b058a407655cb18288b807e2216442bca8ad83d6b55a6040516100779190610340565b60405180910390a1005b34801561008d57600080fd5b507fdd970dd9b5bfe707922155b058a407655cb18288b807e2216442bca8ad83d6b55a6040516100bd91906103ba565b60405180910390a1005b3480156100d357600080fd5b506100dc610137565b005b3480156100ea57600080fd5b506100f3610151565b005b34801561010157600080fd5b5061010a6102a6565b60405161011791906103e8565b60405180910390f35b34801561012c57600080fd5b506101356102b0565b005b6001600081548092919061014a90610432565b9190505550565b60008054906101000a900473ffffffffffffffffffffffffffffffffffffffff1673ffffffffffffffffffffffffffffffffffffffff163373ffffffffffffffffffffffffffffffffffffffff16146101d6576040517f93edaa1800000000000000000000000000000000000000000000000000000000815260040160405180910390fd5b60008060009054906101000a900473ffffffffffffffffffffffffffffffffffffffff1673ffffffffffffffffffffffffffffffffffffffff164760405161021d9061048c565b60006040518083038185875af1925050503d806000811461025a576040519150601f19603f3d011682016040523d82523d6000602084013e61025f565b606091505b50509050806102a3576040517f08c379a000000000000000000000000000000000000000000000000000000000815260040161029a906104ed565b60405180910390fd5b50565b6000600154905090565b600160008154809291906102c39061050d565b9190505550565b600082825260208201905092915050565b7f7265636569766500000000000000000000000000000000000000000000000000600082015250565b60006103116007836102ca565b915061031c826102db565b602082019050919050565b6000819050919050565b61033a81610327565b82525050565b6000604082019050818103600083015261035981610304565b90506103686020830184610331565b92915050565b7f66616c6c6261636b000000000000000000000000000000000000000000000000600082015250565b60006103a46008836102ca565b91506103af8261036e565b602082019050919050565b600060408201905081810360008301526103d381610397565b90506103e26020830184610331565b92915050565b60006020820190506103fd6000830184610331565b92915050565b7f4e487b7100000000000000000000000000000000000000000000000000000000600052601160045260246000fd5b600061043d82610327565b9150600082036104505761044f610403565b5b600182039050919050565b600081905092915050565b50565b600061047660008361045b565b915061048182610466565b600082019050919050565b600061049782610469565b9150819050919050565b7f4661696c656420746f2073656e64204574686572000000000000000000000000600082015250565b60006104d76014836102ca565b91506104e2826104a1565b602082019050919050565b60006020820190508181036000830152610506816104ca565b9050919050565b600061051882610327565b91507fffffffffffffffffffffffffffffffffffffffffffffffffffffffffffffffff820361054a57610549610403565b5b60018201905091905056fea264697066735822122046a1c78b87ba6caccba3f3b63ac9eda7eb8be4df94c61c9977543ca9902b02db64736f6c63430008130033",
  "devdoc": {
    "kind": "dev",
    "methods": {},
    "version": 1
  },
  "userdoc": {
    "kind": "user",
    "methods": {},
    "version": 1
  },
  "storageLayout": {
    "storage": [
      {
        "astId": 13,
        "contract": "contracts/testing.sol:testing",
        "label": "owner",
        "offset": 0,
        "slot": "0",
        "type": "t_address_payable"
      },
      {
        "astId": 16,
        "contract": "contracts/testing.sol:testing",
        "label": "c",
        "offset": 0,
        "slot": "1",
        "type": "t_uint256"
      }
    ],
    "types": {
      "t_address_payable": {
        "encoding": "inplace",
        "label": "address payable",
        "numberOfBytes": "20"
      },
      "t_uint256": {
        "encoding": "inplace",
        "label": "uint256",
        "numberOfBytes": "32"
      }
    }
  }
}