{
  "_format": "hh-sol-artifact-1",
  "contractName": "testing2",
  "sourceName": "contracts/testing2.sol",
  "abi": [
    {
      "inputs": [
        {
          "internalType": "address payable",
          "name": "_owner",
          "type": "address"
        }
      ],
      "stateMutability": "nonpayable",
      "type": "constructor"
    },
    {
      "inputs": [],
      "name": "not_Owner",
      "type": "error"
    },
    {
      "anonymous": false,
      "inputs": [
        {
          "indexed": false,
          "internalType": "string",
          "name": "func",
          "type": "string"
        },
        {
          "indexed": false,
          "internalType": "uint256",
          "name": "gas",
          "type": "uint256"
        }
      ],
      "name": "Log",
      "type": "event"
    },
    {
      "stateMutability": "nonpayable",
      "type": "fallback"
    },
    {
      "inputs": [],
      "name": "decrement",
      "outputs": [],
      "stateMutability": "nonpayable",
      "type": "function"
    },
    {
      "inputs": [],
      "name": "getter",
      "outputs": [
        {
          "internalType": "uint256",
          "name": "",
          "type": "uint256"
        }
      ],
      "stateMutability": "view",
      "type": "function"
    },
    {
      "inputs": [],
      "name": "increment",
      "outputs": [],
      "stateMutability": "nonpayable",
      "type": "function"
    },
    {
      "inputs": [],
      "name": "withdraw",
      "outputs": [],
      "stateMutability": "nonpayable",
      "type": "function"
    },
    {
      "stateMutability": "payable",
      "type": "receive"
    }
  ],
  "bytecode": "0x6080604052600060015534801561001557600080fd5b50604051610695380380610695833981810160405281019061003791906100e0565b806000806101000a81548173ffffffffffffffffffffffffffffffffffffffff021916908373ffffffffffffffffffffffffffffffffffffffff1602179055505061010d565b600080fd5b600073ffffffffffffffffffffffffffffffffffffffff82169050919050565b60006100ad82610082565b9050919050565b6100bd816100a2565b81146100c857600080fd5b50565b6000815190506100da816100b4565b92915050565b6000602082840312156100f6576100f561007d565b5b6000610104848285016100cb565b91505092915050565b6105798061011c6000396000f3fe6080604052600436106100435760003560e01c80632baeceb7146100c75780633ccfd60b146100de578063993a04b7146100f5578063d09de08a1461012057610081565b36610081577fdd970dd9b5bfe707922155b058a407655cb18288b807e2216442bca8ad83d6b55a6040516100779190610342565b60405180910390a1005b34801561008d57600080fd5b507fdd970dd9b5bfe707922155b058a407655cb18288b807e2216442bca8ad83d6b55a6040516100bd91906103bc565b60405180910390a1005b3480156100d357600080fd5b506100dc610137565b005b3480156100ea57600080fd5b506100f3610151565b005b34801561010157600080fd5b5061010a6102a6565b60405161011791906103ea565b60405180910390f35b34801561012c57600080fd5b506101356102b0565b005b6001600081548092919061014a90610434565b9190505550565b60008054906101000a900473ffffffffffffffffffffffffffffffffffffffff1673ffffffffffffffffffffffffffffffffffffffff163373ffffffffffffffffffffffffffffffffffffffff16146101d6576040517f93edaa1800000000000000000000000000000000000000000000000000000000815260040160405180910390fd5b60008060009054906101000a900473ffffffffffffffffffffffffffffffffffffffff1673ffffffffffffffffffffffffffffffffffffffff164760405161021d9061048e565b60006040518083038185875af1925050503d806000811461025a576040519150601f19603f3d011682016040523d82523d6000602084013e61025f565b606091505b50509050806102a3576040517f08c379a000000000000000000000000000000000000000000000000000000000815260040161029a906104ef565b60405180910390fd5b50565b6000600154905090565b6005600160008282546102c3919061050f565b92505081905550565b600082825260208201905092915050565b7f7265636569766500000000000000000000000000000000000000000000000000600082015250565b60006103136007836102cc565b915061031e826102dd565b602082019050919050565b6000819050919050565b61033c81610329565b82525050565b6000604082019050818103600083015261035b81610306565b905061036a6020830184610333565b92915050565b7f66616c6c6261636b000000000000000000000000000000000000000000000000600082015250565b60006103a66008836102cc565b91506103b182610370565b602082019050919050565b600060408201905081810360008301526103d581610399565b90506103e46020830184610333565b92915050565b60006020820190506103ff6000830184610333565b92915050565b7f4e487b7100000000000000000000000000000000000000000000000000000000600052601160045260246000fd5b600061043f82610329565b91506000820361045257610451610405565b5b600182039050919050565b600081905092915050565b50565b600061047860008361045d565b915061048382610468565b600082019050919050565b60006104998261046b565b9150819050919050565b7f4661696c656420746f2073656e64204574686572000000000000000000000000600082015250565b60006104d96014836102cc565b91506104e4826104a3565b602082019050919050565b60006020820190508181036000830152610508816104cc565b9050919050565b600061051a82610329565b915061052583610329565b925082820190508082111561053d5761053c610405565b5b9291505056fea264697066735822122049a05f3b96160facf479484f0879754c95e7045e4506e7cbf368091f2bd64d6064736f6c63430008130033",
  "linkReferences": {},
  "deployedLinkReferences": {}
}